{
  "contractName": "redGridVEContract",
  "abi": [
    {
      "constant": true,
      "inputs": [],
      "name": "pwrGenBalance",
      "outputs": [
        {
          "name": "",
          "type": "uint256"
        }
      ],
      "payable": false,
      "stateMutability": "view",
      "type": "function"
    },
    {
      "constant": true,
      "inputs": [],
      "name": "index",
      "outputs": [
        {
          "name": "",
          "type": "uint256"
        }
      ],
      "payable": false,
      "stateMutability": "view",
      "type": "function"
    },
    {
      "constant": true,
      "inputs": [],
      "name": "telcoGenBalance",
      "outputs": [
        {
          "name": "",
          "type": "uint256"
        }
      ],
      "payable": false,
      "stateMutability": "view",
      "type": "function"
    },
    {
      "constant": true,
      "inputs": [],
      "name": "waterGenBalance",
      "outputs": [
        {
          "name": "",
          "type": "uint256"
        }
      ],
      "payable": false,
      "stateMutability": "view",
      "type": "function"
    },
    {
      "constant": false,
      "inputs": [],
      "name": "setValues",
      "outputs": [],
      "payable": false,
      "stateMutability": "nonpayable",
      "type": "function"
    },
    {
      "constant": false,
      "inputs": [],
      "name": "pwrConsume",
      "outputs": [
        {
          "name": "",
          "type": "uint256"
        }
      ],
      "payable": false,
      "stateMutability": "nonpayable",
      "type": "function"
    },
    {
      "constant": false,
      "inputs": [],
      "name": "pwrProduce",
      "outputs": [
        {
          "name": "",
          "type": "uint256"
        }
      ],
      "payable": false,
      "stateMutability": "nonpayable",
      "type": "function"
    },
    {
      "constant": false,
      "inputs": [],
      "name": "telcoConsume",
      "outputs": [
        {
          "name": "",
          "type": "uint256"
        }
      ],
      "payable": false,
      "stateMutability": "nonpayable",
      "type": "function"
    },
    {
      "constant": false,
      "inputs": [],
      "name": "telcoProduce",
      "outputs": [
        {
          "name": "",
          "type": "uint256"
        }
      ],
      "payable": false,
      "stateMutability": "nonpayable",
      "type": "function"
    },
    {
      "constant": false,
      "inputs": [],
      "name": "waterConsume",
      "outputs": [
        {
          "name": "",
          "type": "uint256"
        }
      ],
      "payable": false,
      "stateMutability": "nonpayable",
      "type": "function"
    },
    {
      "constant": false,
      "inputs": [],
      "name": "waterProduce",
      "outputs": [
        {
          "name": "",
          "type": "uint256"
        }
      ],
      "payable": false,
      "stateMutability": "nonpayable",
      "type": "function"
    },
    {
      "constant": false,
      "inputs": [],
      "name": "homeTot",
      "outputs": [
        {
          "name": "",
          "type": "uint256"
        }
      ],
      "payable": false,
      "stateMutability": "nonpayable",
      "type": "function"
    },
    {
      "constant": false,
      "inputs": [],
      "name": "consumeValue",
      "outputs": [
        {
          "name": "",
          "type": "uint256"
        }
      ],
      "payable": false,
      "stateMutability": "nonpayable",
      "type": "function"
    },
    {
      "constant": false,
      "inputs": [],
      "name": "produceValue",
      "outputs": [
        {
          "name": "",
          "type": "uint256"
        }
      ],
      "payable": false,
      "stateMutability": "nonpayable",
      "type": "function"
    }
  ],
  "bytecode": "0x6060604052612710600055612710600155612710600255341561002157600080fd5b610742806100306000396000f3006060604052600436106100d0576000357c0100000000000000000000000000000000000000000000000000000000900463ffffffff16806308bc458c146100d557806320ba9ff5146100fe578063222097d61461012757806324431d5414610150578063258fd68b146101795780632986c0e5146101a257806345a1256d146101cb5780635acc1d67146101f45780637ebfa6301461021d578063800509d514610246578063808e21431461025b578063aebd364114610284578063bed9e29e146102ad578063f956383b146102d6575b600080fd5b34156100e057600080fd5b6100e86102ff565b6040518082815260200191505060405180910390f35b341561010957600080fd5b61011161045a565b6040518082815260200191505060405180910390f35b341561013257600080fd5b61013a61045f565b6040518082815260200191505060405180910390f35b341561015b57600080fd5b610163610464565b6040518082815260200191505060405180910390f35b341561018457600080fd5b61018c61046a565b6040518082815260200191505060405180910390f35b34156101ad57600080fd5b6101b561046f565b6040518082815260200191505060405180910390f35b34156101d657600080fd5b6101de610475565b6040518082815260200191505060405180910390f35b34156101ff57600080fd5b61020761047a565b6040518082815260200191505060405180910390f35b341561022857600080fd5b61023061047f565b6040518082815260200191505060405180910390f35b341561025157600080fd5b610259610484565b005b341561026657600080fd5b61026e61055e565b6040518082815260200191505060405180910390f35b341561028f57600080fd5b610297610564565b6040518082815260200191505060405180910390f35b34156102b857600080fd5b6102c061063a565b6040518082815260200191505060405180910390f35b34156102e157600080fd5b6102e9610640565b6040518082815260200191505060405180910390f35b6000600460003373ffffffffffffffffffffffffffffffffffffffff1673ffffffffffffffffffffffffffffffffffffffff16815260200190815260200160002060030154600460003373ffffffffffffffffffffffffffffffffffffffff1673ffffffffffffffffffffffffffffffffffffffff16815260200190815260200160002060020154600460003373ffffffffffffffffffffffffffffffffffffffff1673ffffffffffffffffffffffffffffffffffffffff168152602001908152602001600020600101540202600460003373ffffffffffffffffffffffffffffffffffffffff1673ffffffffffffffffffffffffffffffffffffffff16815260200190815260200160002060040181905550600460003373ffffffffffffffffffffffffffffffffffffffff1673ffffffffffffffffffffffffffffffffffffffff16815260200190815260200160002060040154905090565b600090565b600090565b60005481565b600090565b60035481565b600090565b600090565b600090565b6064600460003373ffffffffffffffffffffffffffffffffffffffff1673ffffffffffffffffffffffffffffffffffffffff168152602001908152602001600020600101819055506064600460003373ffffffffffffffffffffffffffffffffffffffff1673ffffffffffffffffffffffffffffffffffffffff168152602001908152602001600020600201819055506064600460003373ffffffffffffffffffffffffffffffffffffffff1673ffffffffffffffffffffffffffffffffffffffff16815260200190815260200160002060030181905550565b60015481565b60006005600460003373ffffffffffffffffffffffffffffffffffffffff1673ffffffffffffffffffffffffffffffffffffffff1681526020019081526020016000206001015403600460003373ffffffffffffffffffffffffffffffffffffffff1673ffffffffffffffffffffffffffffffffffffffff16815260200190815260200160002060010181905550600460003373ffffffffffffffffffffffffffffffffffffffff1673ffffffffffffffffffffffffffffffffffffffff16815260200190815260200160002060010154905090565b60025481565b60006005600460003373ffffffffffffffffffffffffffffffffffffffff1673ffffffffffffffffffffffffffffffffffffffff1681526020019081526020016000206001015401600460003373ffffffffffffffffffffffffffffffffffffffff1673ffffffffffffffffffffffffffffffffffffffff16815260200190815260200160002060010181905550600460003373ffffffffffffffffffffffffffffffffffffffff1673ffffffffffffffffffffffffffffffffffffffff168152602001908152602001600020600101549050905600a165627a7a7230582035a33a764bde595a2ef69fada55eec23bd756eb53c6dc35716178611fe41867f0029",
  "source": "pragma solidity ^0.4.18;\n\ncontract redGridVEContract {\n\n// setup struct for each home in list\n\n    struct UserDetails {\n      uint id;\n      uint pwrUsage;\n      uint telcoUsage;\n      uint waterUsage;\n      uint xtlBalance;\n    }\n\n//central bank balance\n    uint public pwrGenBalance = 10000;\n    uint public telcoGenBalance = 10000;\n    uint public waterGenBalance = 10000;\n\n// counter for index\n    uint public index;\n\n//mapping of the sender to the struct so only they can access\n\n    mapping (address => UserDetails) userInfo;\n\n//function to set initial values of struct as solidity wont let me set a default\nfunction setValues() {\n  userInfo[msg.sender].pwrUsage = 100;\n  userInfo[msg.sender].telcoUsage = 100;\n  userInfo[msg.sender].waterUsage = 100;\n}\n\n//functions for consuming or producing pwr telco water\n//power dashboard functions\n  /*when a home presses the consume button their existing pwr balance will be reduced -5 per block time\n  figure will reduce till it reaches 0 at which point it will begin 'borrowing' from the Gen\n  only the message sender can review and initiate these actions\n  when a home presses the produce button their existing pwr balance will increase +5 per block time\n  figure will increase without limit\n  only the message sender can review and initiate these actions */\n\nfunction pwrConsume() returns (uint) {\n  userInfo[msg.sender].pwrUsage = userInfo[msg.sender].pwrUsage - 5;\n  return userInfo[msg.sender].pwrUsage;\n}\n\nfunction pwrProduce() returns (uint) {\n  userInfo[msg.sender].pwrUsage = userInfo[msg.sender].pwrUsage + 5;\n  return userInfo[msg.sender].pwrUsage;\n}\n\n//Telco dashboard functions\n  /* includes functions for each of four users to define if they are\n  consuming or producing credits. */\n\nfunction telcoConsume() returns (uint) {}\nfunction telcoProduce() returns (uint) {}\n\n//Water dashboard functions\n  /* includes functions for each of four homes to define if they are\n  consuming or producing water. */\n\nfunction waterConsume() returns (uint) {}\nfunction waterProduce() returns (uint) {}\n\n//functions for xtl token\n  /* this section includes the functions that determine current XTL\n  balance for each of the users.  this balance is determined from\n  the users holdings on the blockchain of all the 'sub-tokens' above */\n\nfunction homeTot() returns (uint) {\n  userInfo[msg.sender].xtlBalance = userInfo[msg.sender].pwrUsage * userInfo[msg.sender].telcoUsage * userInfo[msg.sender].waterUsage;\n  return (userInfo[msg.sender].xtlBalance);\n}\n\n//events\n\nfunction consumeValue() returns (uint) {}\n\nfunction produceValue() returns (uint) {}\n\n}\n",
  "sourcePath": "/Users/simonwilson/Documents/Coding/RedGrid/contracts/redGridVEContract.sol",
  "compiler": {
    "name": "solc",
    "version": "0.4.19+commit.c4cbbb05.Emscripten.clang"
  },
  "schemaVersion": "2.0.0",
  "updatedAt": "2018-05-24T00:33:26.922Z"
}