{
  "contractName": "redGridVEContract",
  "abi": [
    {
      "constant": true,
      "inputs": [],
      "name": "pwrGenBalance",
      "outputs": [
        {
          "name": "",
          "type": "uint256"
        }
      ],
      "payable": false,
      "stateMutability": "view",
      "type": "function"
    },
    {
      "constant": true,
      "inputs": [],
      "name": "telcoGenBalance",
      "outputs": [
        {
          "name": "",
          "type": "uint256"
        }
      ],
      "payable": false,
      "stateMutability": "view",
      "type": "function"
    },
    {
      "constant": true,
      "inputs": [],
      "name": "waterGenBalance",
      "outputs": [
        {
          "name": "",
          "type": "uint256"
        }
      ],
      "payable": false,
      "stateMutability": "view",
      "type": "function"
    },
    {
      "constant": true,
      "inputs": [
        {
          "name": "",
          "type": "uint256"
        }
      ],
      "name": "HomeArray",
      "outputs": [
        {
          "name": "",
          "type": "uint256"
        }
      ],
      "payable": false,
      "stateMutability": "view",
      "type": "function"
    },
    {
      "constant": false,
      "inputs": [],
      "name": "pwrConsume",
      "outputs": [
        {
          "name": "",
          "type": "uint256"
        }
      ],
      "payable": false,
      "stateMutability": "nonpayable",
      "type": "function"
    },
    {
      "constant": false,
      "inputs": [],
      "name": "pwrProduce",
      "outputs": [
        {
          "name": "",
          "type": "uint256"
        }
      ],
      "payable": false,
      "stateMutability": "nonpayable",
      "type": "function"
    },
    {
      "constant": false,
      "inputs": [],
      "name": "telcoConsume",
      "outputs": [
        {
          "name": "",
          "type": "uint256"
        }
      ],
      "payable": false,
      "stateMutability": "nonpayable",
      "type": "function"
    },
    {
      "constant": false,
      "inputs": [],
      "name": "telcoProduce",
      "outputs": [
        {
          "name": "",
          "type": "uint256"
        }
      ],
      "payable": false,
      "stateMutability": "nonpayable",
      "type": "function"
    },
    {
      "constant": false,
      "inputs": [],
      "name": "waterConsume",
      "outputs": [
        {
          "name": "",
          "type": "uint256"
        }
      ],
      "payable": false,
      "stateMutability": "nonpayable",
      "type": "function"
    },
    {
      "constant": false,
      "inputs": [],
      "name": "waterProduce",
      "outputs": [
        {
          "name": "",
          "type": "uint256"
        }
      ],
      "payable": false,
      "stateMutability": "nonpayable",
      "type": "function"
    },
    {
      "constant": false,
      "inputs": [],
      "name": "homeTot",
      "outputs": [
        {
          "name": "",
          "type": "uint256"
        },
        {
          "name": "",
          "type": "uint256"
        },
        {
          "name": "",
          "type": "uint256"
        },
        {
          "name": "",
          "type": "uint256"
        }
      ],
      "payable": false,
      "stateMutability": "nonpayable",
      "type": "function"
    },
    {
      "constant": false,
      "inputs": [],
      "name": "consumeValue",
      "outputs": [
        {
          "name": "",
          "type": "uint256"
        }
      ],
      "payable": false,
      "stateMutability": "nonpayable",
      "type": "function"
    },
    {
      "constant": false,
      "inputs": [],
      "name": "produceValue",
      "outputs": [
        {
          "name": "",
          "type": "uint256"
        }
      ],
      "payable": false,
      "stateMutability": "nonpayable",
      "type": "function"
    }
  ],
  "bytecode": "0x6060604052608060405190810160405280606462ffffff168152602001606462ffffff168152602001606462ffffff168152602001620186a062ffffff168152506000906004610050929190610073565b50612710600455612710600555612710600655341561006e57600080fd5b6100df565b82600481019282156100a9579160200282015b828111156100a8578251829062ffffff16905591602001919060010190610086565b5b5090506100b691906100ba565b5090565b6100dc91905b808211156100d85760008160009055506001016100c0565b5090565b90565b610453806100ee6000396000f3006060604052600436106100c5576000357c0100000000000000000000000000000000000000000000000000000000900463ffffffff16806308bc458c146100ca57806320ba9ff514610108578063222097d61461013157806324431d541461015a578063258fd68b1461018357806345a1256d146101ac5780635acc1d67146101d55780637ebfa630146101fe578063808e214314610227578063aebd364114610250578063bed9e29e14610279578063bf28d924146102a2578063f956383b146102d9575b600080fd5b34156100d557600080fd5b6100dd610302565b6040518085815260200184815260200183815260200182815260200194505050505060405180910390f35b341561011357600080fd5b61011b61035d565b6040518082815260200191505060405180910390f35b341561013c57600080fd5b610144610362565b6040518082815260200191505060405180910390f35b341561016557600080fd5b61016d610367565b6040518082815260200191505060405180910390f35b341561018e57600080fd5b61019661036d565b6040518082815260200191505060405180910390f35b34156101b757600080fd5b6101bf610372565b6040518082815260200191505060405180910390f35b34156101e057600080fd5b6101e8610377565b6040518082815260200191505060405180910390f35b341561020957600080fd5b61021161037c565b6040518082815260200191505060405180910390f35b341561023257600080fd5b61023a610381565b6040518082815260200191505060405180910390f35b341561025b57600080fd5b610263610387565b6040518082815260200191505060405180910390f35b341561028457600080fd5b61028c6103c7565b6040518082815260200191505060405180910390f35b34156102ad57600080fd5b6102c360048080359060200190919050506103cd565b6040518082815260200191505060405180910390f35b34156102e457600080fd5b6102ec6103e7565b6040518082815260200191505060405180910390f35b60008060008060008060048110151561031757fe5b01546000600160048110151561032957fe5b01546000600260048110151561033b57fe5b01546000600360048110151561034d57fe5b0154935093509350935090919293565b600090565b600090565b60045481565b600090565b600090565b600090565b600090565b60055481565b6000600560008060048110151561039a57fe5b0154036000806004811015156103ac57fe5b01819055506000806004811015156103c057fe5b0154905090565b60065481565b6000816004811015156103dc57fe5b016000915090505481565b600060056000806004811015156103fa57fe5b01540160008060048110151561040c57fe5b018190555060008060048110151561042057fe5b01549050905600a165627a7a72305820d0b832362d2858aa85d9cce71f6170a57b4cb975efd5e6be5afa4098eb0a7cce0029",
  "source": "pragma solidity ^0.4.18;\n\ncontract redGridVEContract {\n\n// setup array for each home in list\n    uint[4] public HomeArray = [100, 100, 100, 100000];\n\n\n//central bank balance\n    uint public pwrGenBalance = 10000;\n    uint public telcoGenBalance = 10000;\n    uint public waterGenBalance = 10000;\n\n// counter for index\n\n\n//mapping of the sender to the array so only they can access\n    mapping (address => uint[4]) homeOwnerDetails;\n\n//functions for consuming or producing pwr telco water\n\n//power dashboard functions\n\n/*\nwhen a home presses the consume button their existing pwr balance will be reduced -5 per block time\nfigure will reduce till it reaches 0 at which point it will begin 'borrowing' from the Gen\nonly the message sender can review and initiate these actions\n\nwhen a home presses the produce button their existing pwr balance will increase +5 per block time\nfigure will increase without limit\nonly the message sender can review and initiate these actions\n */\n\nfunction pwrConsume() returns (uint) {\n  HomeArray[0] = HomeArray[0] - 5;\n  return HomeArray[0];\n}\n\nfunction pwrProduce() returns (uint) {\n  HomeArray[0] = HomeArray[0] + 5;\n  return HomeArray[0];\n}\n\n//Telco dashboard functions\n\n/* includes functions for each of four users to define if they are\nconsuming or producing credits. */\n\nfunction telcoConsume() returns (uint) {}\nfunction telcoProduce() returns (uint) {}\n\n//Water dashboard functions\n\n/* includes functions for each of four homes to define if they are\nconsuming or producing water. */\n\nfunction waterConsume() returns (uint) {}\nfunction waterProduce() returns (uint) {}\n\n//functions for xtl token\n\n/* this section includes the functions that determine current XTL\nbalance for each of the users.  this balance is determined from\nthe users holdings on the blockchain of all the 'sub-tokens' above */\n\nfunction homeTot() returns (uint, uint, uint, uint) {\n return (HomeArray[0], HomeArray[1], HomeArray[2], HomeArray[3]);\n}\n\n//events\n\nfunction consumeValue() returns (uint) {}\n\nfunction produceValue() returns (uint) {}\n\n}\n",
  "sourcePath": "/Users/simonwilson/Documents/Coding/RedGrid/contracts/redGridVEContract.sol",
  "compiler": {
    "name": "solc",
    "version": "0.4.19+commit.c4cbbb05.Emscripten.clang"
  },
  "schemaVersion": "2.0.0",
  "updatedAt": "2018-05-14T04:12:32.020Z"
}