{
  "contractName": "redGridVEContract",
  "abi": [
    {
      "constant": true,
      "inputs": [],
      "name": "tot2Balance",
      "outputs": [
        {
          "name": "",
          "type": "uint256"
        }
      ],
      "payable": false,
      "stateMutability": "view",
      "type": "function"
    },
    {
      "constant": true,
      "inputs": [],
      "name": "tot3Balance",
      "outputs": [
        {
          "name": "",
          "type": "uint256"
        }
      ],
      "payable": false,
      "stateMutability": "view",
      "type": "function"
    },
    {
      "constant": true,
      "inputs": [],
      "name": "telco4Balance",
      "outputs": [
        {
          "name": "",
          "type": "uint256"
        }
      ],
      "payable": false,
      "stateMutability": "view",
      "type": "function"
    },
    {
      "constant": true,
      "inputs": [],
      "name": "water4Balance",
      "outputs": [
        {
          "name": "",
          "type": "uint256"
        }
      ],
      "payable": false,
      "stateMutability": "view",
      "type": "function"
    },
    {
      "constant": true,
      "inputs": [],
      "name": "pwrGenBalance",
      "outputs": [
        {
          "name": "",
          "type": "uint256"
        }
      ],
      "payable": false,
      "stateMutability": "view",
      "type": "function"
    },
    {
      "constant": true,
      "inputs": [],
      "name": "pwr4Balance",
      "outputs": [
        {
          "name": "",
          "type": "uint256"
        }
      ],
      "payable": false,
      "stateMutability": "view",
      "type": "function"
    },
    {
      "constant": true,
      "inputs": [],
      "name": "water1Balance",
      "outputs": [
        {
          "name": "",
          "type": "uint256"
        }
      ],
      "payable": false,
      "stateMutability": "view",
      "type": "function"
    },
    {
      "constant": true,
      "inputs": [],
      "name": "water2Balance",
      "outputs": [
        {
          "name": "",
          "type": "uint256"
        }
      ],
      "payable": false,
      "stateMutability": "view",
      "type": "function"
    },
    {
      "constant": true,
      "inputs": [],
      "name": "water3Balance",
      "outputs": [
        {
          "name": "",
          "type": "uint256"
        }
      ],
      "payable": false,
      "stateMutability": "view",
      "type": "function"
    },
    {
      "constant": true,
      "inputs": [],
      "name": "pwr2Balance",
      "outputs": [
        {
          "name": "",
          "type": "uint256"
        }
      ],
      "payable": false,
      "stateMutability": "view",
      "type": "function"
    },
    {
      "constant": true,
      "inputs": [],
      "name": "pwr1Balance",
      "outputs": [
        {
          "name": "",
          "type": "uint256"
        }
      ],
      "payable": false,
      "stateMutability": "view",
      "type": "function"
    },
    {
      "constant": true,
      "inputs": [],
      "name": "telco1Balance",
      "outputs": [
        {
          "name": "",
          "type": "uint256"
        }
      ],
      "payable": false,
      "stateMutability": "view",
      "type": "function"
    },
    {
      "constant": true,
      "inputs": [],
      "name": "tot1Balance",
      "outputs": [
        {
          "name": "",
          "type": "uint256"
        }
      ],
      "payable": false,
      "stateMutability": "view",
      "type": "function"
    },
    {
      "constant": true,
      "inputs": [],
      "name": "telco3Balance",
      "outputs": [
        {
          "name": "",
          "type": "uint256"
        }
      ],
      "payable": false,
      "stateMutability": "view",
      "type": "function"
    },
    {
      "constant": true,
      "inputs": [],
      "name": "tot4Balance",
      "outputs": [
        {
          "name": "",
          "type": "uint256"
        }
      ],
      "payable": false,
      "stateMutability": "view",
      "type": "function"
    },
    {
      "constant": true,
      "inputs": [],
      "name": "telco2Balance",
      "outputs": [
        {
          "name": "",
          "type": "uint256"
        }
      ],
      "payable": false,
      "stateMutability": "view",
      "type": "function"
    },
    {
      "constant": true,
      "inputs": [],
      "name": "pwr3Balance",
      "outputs": [
        {
          "name": "",
          "type": "uint256"
        }
      ],
      "payable": false,
      "stateMutability": "view",
      "type": "function"
    },
    {
      "constant": false,
      "inputs": [],
      "name": "pwr1Consume",
      "outputs": [
        {
          "name": "",
          "type": "uint256"
        }
      ],
      "payable": false,
      "stateMutability": "nonpayable",
      "type": "function"
    },
    {
      "constant": false,
      "inputs": [],
      "name": "pwr1Produce",
      "outputs": [
        {
          "name": "",
          "type": "uint256"
        }
      ],
      "payable": false,
      "stateMutability": "nonpayable",
      "type": "function"
    },
    {
      "constant": false,
      "inputs": [],
      "name": "pwr2Consume",
      "outputs": [
        {
          "name": "",
          "type": "uint256"
        }
      ],
      "payable": false,
      "stateMutability": "nonpayable",
      "type": "function"
    },
    {
      "constant": false,
      "inputs": [],
      "name": "pwr2Produce",
      "outputs": [
        {
          "name": "",
          "type": "uint256"
        }
      ],
      "payable": false,
      "stateMutability": "nonpayable",
      "type": "function"
    },
    {
      "constant": false,
      "inputs": [],
      "name": "pwr3Consume",
      "outputs": [
        {
          "name": "",
          "type": "uint256"
        }
      ],
      "payable": false,
      "stateMutability": "nonpayable",
      "type": "function"
    },
    {
      "constant": false,
      "inputs": [],
      "name": "pwr3Produce",
      "outputs": [
        {
          "name": "",
          "type": "uint256"
        }
      ],
      "payable": false,
      "stateMutability": "nonpayable",
      "type": "function"
    },
    {
      "constant": false,
      "inputs": [],
      "name": "pwr4Consume",
      "outputs": [
        {
          "name": "",
          "type": "uint256"
        }
      ],
      "payable": false,
      "stateMutability": "nonpayable",
      "type": "function"
    },
    {
      "constant": false,
      "inputs": [],
      "name": "pwr4Produce",
      "outputs": [
        {
          "name": "",
          "type": "uint256"
        }
      ],
      "payable": false,
      "stateMutability": "nonpayable",
      "type": "function"
    },
    {
      "constant": false,
      "inputs": [],
      "name": "telco1Consume",
      "outputs": [
        {
          "name": "",
          "type": "uint256"
        }
      ],
      "payable": false,
      "stateMutability": "nonpayable",
      "type": "function"
    },
    {
      "constant": false,
      "inputs": [],
      "name": "telco1Produce",
      "outputs": [
        {
          "name": "",
          "type": "uint256"
        }
      ],
      "payable": false,
      "stateMutability": "nonpayable",
      "type": "function"
    },
    {
      "constant": false,
      "inputs": [],
      "name": "telco2Consume",
      "outputs": [
        {
          "name": "",
          "type": "uint256"
        }
      ],
      "payable": false,
      "stateMutability": "nonpayable",
      "type": "function"
    },
    {
      "constant": false,
      "inputs": [],
      "name": "telco2Produce",
      "outputs": [
        {
          "name": "",
          "type": "uint256"
        }
      ],
      "payable": false,
      "stateMutability": "nonpayable",
      "type": "function"
    },
    {
      "constant": false,
      "inputs": [],
      "name": "telco3Consume",
      "outputs": [
        {
          "name": "",
          "type": "uint256"
        }
      ],
      "payable": false,
      "stateMutability": "nonpayable",
      "type": "function"
    },
    {
      "constant": false,
      "inputs": [],
      "name": "telco3Produce",
      "outputs": [
        {
          "name": "",
          "type": "uint256"
        }
      ],
      "payable": false,
      "stateMutability": "nonpayable",
      "type": "function"
    },
    {
      "constant": false,
      "inputs": [],
      "name": "telco4Consume",
      "outputs": [
        {
          "name": "",
          "type": "uint256"
        }
      ],
      "payable": false,
      "stateMutability": "nonpayable",
      "type": "function"
    },
    {
      "constant": false,
      "inputs": [],
      "name": "telco4Produce",
      "outputs": [
        {
          "name": "",
          "type": "uint256"
        }
      ],
      "payable": false,
      "stateMutability": "nonpayable",
      "type": "function"
    },
    {
      "constant": false,
      "inputs": [],
      "name": "water1Consume",
      "outputs": [
        {
          "name": "",
          "type": "uint256"
        }
      ],
      "payable": false,
      "stateMutability": "nonpayable",
      "type": "function"
    },
    {
      "constant": false,
      "inputs": [],
      "name": "water1Produce",
      "outputs": [
        {
          "name": "",
          "type": "uint256"
        }
      ],
      "payable": false,
      "stateMutability": "nonpayable",
      "type": "function"
    },
    {
      "constant": false,
      "inputs": [],
      "name": "water2Consume",
      "outputs": [
        {
          "name": "",
          "type": "uint256"
        }
      ],
      "payable": false,
      "stateMutability": "nonpayable",
      "type": "function"
    },
    {
      "constant": false,
      "inputs": [],
      "name": "water2Produce",
      "outputs": [
        {
          "name": "",
          "type": "uint256"
        }
      ],
      "payable": false,
      "stateMutability": "nonpayable",
      "type": "function"
    },
    {
      "constant": false,
      "inputs": [],
      "name": "water3Consume",
      "outputs": [
        {
          "name": "",
          "type": "uint256"
        }
      ],
      "payable": false,
      "stateMutability": "nonpayable",
      "type": "function"
    },
    {
      "constant": false,
      "inputs": [],
      "name": "water3Produce",
      "outputs": [
        {
          "name": "",
          "type": "uint256"
        }
      ],
      "payable": false,
      "stateMutability": "nonpayable",
      "type": "function"
    },
    {
      "constant": false,
      "inputs": [],
      "name": "water4Consume",
      "outputs": [
        {
          "name": "",
          "type": "uint256"
        }
      ],
      "payable": false,
      "stateMutability": "nonpayable",
      "type": "function"
    },
    {
      "constant": false,
      "inputs": [],
      "name": "water4Produce",
      "outputs": [
        {
          "name": "",
          "type": "uint256"
        }
      ],
      "payable": false,
      "stateMutability": "nonpayable",
      "type": "function"
    },
    {
      "constant": false,
      "inputs": [
        {
          "name": "pwr1Balance",
          "type": "uint256"
        },
        {
          "name": "telco1Balance",
          "type": "uint256"
        },
        {
          "name": "water1Balance",
          "type": "uint256"
        }
      ],
      "name": "user1Tot",
      "outputs": [
        {
          "name": "",
          "type": "uint256"
        }
      ],
      "payable": false,
      "stateMutability": "nonpayable",
      "type": "function"
    },
    {
      "constant": false,
      "inputs": [
        {
          "name": "pwr2Balance",
          "type": "uint256"
        },
        {
          "name": "telco2Balance",
          "type": "uint256"
        },
        {
          "name": "water2Balance",
          "type": "uint256"
        }
      ],
      "name": "user2Tot",
      "outputs": [
        {
          "name": "",
          "type": "uint256"
        }
      ],
      "payable": false,
      "stateMutability": "nonpayable",
      "type": "function"
    },
    {
      "constant": false,
      "inputs": [
        {
          "name": "pwr3Balance",
          "type": "uint256"
        },
        {
          "name": "telco3Balance",
          "type": "uint256"
        },
        {
          "name": "water3Balance",
          "type": "uint256"
        }
      ],
      "name": "user3Tot",
      "outputs": [
        {
          "name": "",
          "type": "uint256"
        }
      ],
      "payable": false,
      "stateMutability": "nonpayable",
      "type": "function"
    },
    {
      "constant": false,
      "inputs": [
        {
          "name": "pwr4Balance",
          "type": "uint256"
        },
        {
          "name": "telco4Balance",
          "type": "uint256"
        },
        {
          "name": "water4Balance",
          "type": "uint256"
        }
      ],
      "name": "user4Tot",
      "outputs": [
        {
          "name": "",
          "type": "uint256"
        }
      ],
      "payable": false,
      "stateMutability": "nonpayable",
      "type": "function"
    }
  ],
  "bytecode": "0x60606040526064600055606460015560646002556064600355612710600455606460055560646006556064600755606460085560646009556064600a556064600b556064600c556009546005546000540202600d55600a546006546001540202600e55600b546007546002540202600f55600c546008546003540202601055341561008957600080fd5b610bc7806100986000396000f300606060405260043610610225576000357c0100000000000000000000000000000000000000000000000000000000900463ffffffff16806306e1a3d11461022a5780630ad839c3146102535780630cde23901461029c5780630f030e3c146102c55780631258998d146102ee578063132af1501461033757806313ead98c1461036057806314dfe179146103895780631ad6d0c7146103b257806324431d54146103db5780632cb9a799146104045780632d5327181461042d5780633479ac391461045657806342fae2451461047f5780634379f4e7146104a857806358a8292b146104d15780635f4939a5146104fa5780636195de9e14610523578063691827481461054c57806372fb63b61461057557806376f5cf121461059e5780637f0ddba6146105c75780637fc77f11146105f0578063852808af1461061957806387db2cd0146106425780638969a9261461066b578063943eab1a1461069457806396ca4e21146106bd578063a3c8dd9b146106e6578063a5d260cc1461070f578063a8a57ba014610758578063b1e28a6e14610781578063b2482e7c146107aa578063befaa1e6146107d3578063c1d7324b146107fc578063c6df5dd714610825578063c998f6dc1461086e578063cd0acd9b14610897578063d2330f3c146108c0578063dcfaed15146108e9578063e403d97414610912578063e75a9cf71461093b578063e7a4e69814610964578063f1bedcb31461098d578063fdb4129d146109b6575b600080fd5b341561023557600080fd5b61023d6109df565b6040518082815260200191505060405180910390f35b341561025e57600080fd5b61028660048080359060200190919080359060200190919080359060200190919050506109e5565b6040518082815260200191505060405180910390f35b34156102a757600080fd5b6102af6109ee565b6040518082815260200191505060405180910390f35b34156102d057600080fd5b6102d86109f3565b6040518082815260200191505060405180910390f35b34156102f957600080fd5b61032160048080359060200190919080359060200190919080359060200190919050506109f8565b6040518082815260200191505060405180910390f35b341561034257600080fd5b61034a610a01565b6040518082815260200191505060405180910390f35b341561036b57600080fd5b610373610a07565b6040518082815260200191505060405180910390f35b341561039457600080fd5b61039c610a0d565b6040518082815260200191505060405180910390f35b34156103bd57600080fd5b6103c5610a13565b6040518082815260200191505060405180910390f35b34156103e657600080fd5b6103ee610a18565b6040518082815260200191505060405180910390f35b341561040f57600080fd5b610417610a1e565b6040518082815260200191505060405180910390f35b341561043857600080fd5b610440610a3a565b6040518082815260200191505060405180910390f35b341561046157600080fd5b610469610a40565b6040518082815260200191505060405180910390f35b341561048a57600080fd5b610492610a46565b6040518082815260200191505060405180910390f35b34156104b357600080fd5b6104bb610a4b565b6040518082815260200191505060405180910390f35b34156104dc57600080fd5b6104e4610a50565b6040518082815260200191505060405180910390f35b341561050557600080fd5b61050d610a56565b6040518082815260200191505060405180910390f35b341561052e57600080fd5b610536610a71565b6040518082815260200191505060405180910390f35b341561055757600080fd5b61055f610a76565b6040518082815260200191505060405180910390f35b341561058057600080fd5b610588610a7b565b6040518082815260200191505060405180910390f35b34156105a957600080fd5b6105b1610a81565b6040518082815260200191505060405180910390f35b34156105d257600080fd5b6105da610a87565b6040518082815260200191505060405180910390f35b34156105fb57600080fd5b610603610a8c565b6040518082815260200191505060405180910390f35b341561062457600080fd5b61062c610aa9565b6040518082815260200191505060405180910390f35b341561064d57600080fd5b610655610aae565b6040518082815260200191505060405180910390f35b341561067657600080fd5b61067e610ab4565b6040518082815260200191505060405180910390f35b341561069f57600080fd5b6106a7610aba565b6040518082815260200191505060405180910390f35b34156106c857600080fd5b6106d0610abf565b6040518082815260200191505060405180910390f35b34156106f157600080fd5b6106f9610ac5565b6040518082815260200191505060405180910390f35b341561071a57600080fd5b6107426004808035906020019091908035906020019091908035906020019091905050610aca565b6040518082815260200191505060405180910390f35b341561076357600080fd5b61076b610ad3565b6040518082815260200191505060405180910390f35b341561078c57600080fd5b610794610ad9565b6040518082815260200191505060405180910390f35b34156107b557600080fd5b6107bd610af6565b6040518082815260200191505060405180910390f35b34156107de57600080fd5b6107e6610afc565b6040518082815260200191505060405180910390f35b341561080757600080fd5b61080f610b02565b6040518082815260200191505060405180910390f35b341561083057600080fd5b6108586004808035906020019091908035906020019091908035906020019091905050610b07565b6040518082815260200191505060405180910390f35b341561087957600080fd5b610881610b10565b6040518082815260200191505060405180910390f35b34156108a257600080fd5b6108aa610b2c565b6040518082815260200191505060405180910390f35b34156108cb57600080fd5b6108d3610b31565b6040518082815260200191505060405180910390f35b34156108f457600080fd5b6108fc610b4d565b6040518082815260200191505060405180910390f35b341561091d57600080fd5b610925610b6a565b6040518082815260200191505060405180910390f35b341561094657600080fd5b61094e610b6f565b6040518082815260200191505060405180910390f35b341561096f57600080fd5b610977610b75565b6040518082815260200191505060405180910390f35b341561099857600080fd5b6109a0610b7a565b6040518082815260200191505060405180910390f35b34156109c157600080fd5b6109c9610b96565b6040518082815260200191505060405180910390f35b600e5481565b60009392505050565b600090565b600090565b60009392505050565b600f5481565b60085481565b600c5481565b600090565b60045481565b6000600160008154809291906001019190505550600154905090565b60035481565b60095481565b600090565b600090565b600a5481565b60008060008154809291906001019190505550600054905090565b600090565b600090565b600b5481565b60015481565b600090565b600060016000815480929190600190039190505550600154905090565b600090565b60005481565b60055481565b600090565b600d5481565b600090565b60009392505050565b60075481565b600060026000815480929190600190039190505550600254905090565b60105481565b60065481565b600090565b60009392505050565b6000600360008154809291906001019190505550600354905090565b600090565b6000600260008154809291906001019190505550600254905090565b600060036000815480929190600190039190505550600354905090565b600090565b60025481565b600090565b6000806000815480929190600190039190505550600054905090565b6000905600a165627a7a72305820dff21eb49dd164da623d1a87f85988bee6c744d84fcc7efade58a4b3756b614b0029",
  "source": "pragma solidity ^0.4.18;\n\ncontract redGridVEContract {\n\n//power balance\n    uint public pwr1Balance = 100;\n    uint public pwr2Balance = 100;\n    uint public pwr3Balance = 100;\n    uint public pwr4Balance = 100;\n    uint public pwrGenBalance = 10000;\n//telco balance\n    uint public telco1Balance = 100;\n    uint public telco2Balance = 100;\n    uint public telco3Balance = 100;\n    uint public telco4Balance = 100;\n//water balance\n    uint public water1Balance = 100;\n    uint public water2Balance = 100;\n    uint public water3Balance = 100;\n    uint public water4Balance = 100;\n//total balance\n    uint public tot1Balance = pwr1Balance * telco1Balance * water1Balance;\n    uint public tot2Balance = pwr2Balance * telco2Balance * water2Balance;\n    uint public tot3Balance = pwr3Balance * telco3Balance * water3Balance;\n    uint public tot4Balance = pwr4Balance * telco4Balance * water4Balance;\n\n//power dashboard functions\n\n/* includes functions for each of four homes to define if it is\nconsuming or producing power.. also includes a function for the\nlocal generator */\n\nfunction pwr1Consume() returns (uint) {\n    pwr1Balance--;\n    return pwr1Balance;\n}\n\nfunction pwr1Produce() returns (uint) {\n    pwr1Balance++;\n    return pwr1Balance;\n}\nfunction pwr2Consume() returns (uint) {\n    pwr2Balance--;\n    return pwr2Balance;\n}\n\nfunction pwr2Produce() returns (uint) {\n    pwr2Balance++;\n    return pwr2Balance;\n}\nfunction pwr3Consume() returns (uint) {\n    pwr3Balance--;\n    return pwr3Balance;\n}\n\nfunction pwr3Produce() returns (uint) {\n    pwr3Balance++;\n    return pwr3Balance;\n}\nfunction pwr4Consume() returns (uint) {\n    pwr4Balance--;\n    return pwr4Balance;\n}\n\nfunction pwr4Produce() returns (uint) {\n    pwr4Balance++;\n    return pwr4Balance;\n}\n\n//Telco dashboard functions\n\n/* includes functions for each of four users to define if they are\nconsuming or producing credits. */\n\nfunction telco1Consume() returns (uint) {\n\n}\nfunction telco1Produce() returns (uint) {\n\n}\nfunction telco2Consume() returns (uint) {\n\n}\nfunction telco2Produce() returns (uint) {\n\n}\nfunction telco3Consume() returns (uint) {\n\n}\nfunction telco3Produce() returns (uint) {\n\n}\nfunction telco4Consume() returns (uint) {\n\n}\nfunction telco4Produce() returns (uint) {\n\n}\n\n//Water dashboard functions\n\n/* includes functions for each of four homes to define if they are\nconsuming or producing water. */\n\nfunction water1Consume() returns (uint) {\n\n}\nfunction water1Produce() returns (uint) {\n\n}\nfunction water2Consume() returns (uint) {\n\n}\nfunction water2Produce() returns (uint) {\n\n}\nfunction water3Consume() returns (uint) {\n\n}\nfunction water3Produce() returns (uint) {\n\n}\nfunction water4Consume() returns (uint) {\n\n}\nfunction water4Produce() returns (uint) {\n\n}\n\n//define the xtl token and functions\n\n/* this section includes the functions that determine current XTL\nbalance for each of the users.  this balance is determined from\nthe users holdings on the blockchain of all the 'sub-tokens' above */\n\nfunction user1Tot(uint pwr1Balance, uint telco1Balance, uint water1Balance) returns (uint) {\n}\nfunction user2Tot(uint pwr2Balance, uint telco2Balance, uint water2Balance) returns (uint) {\n}\nfunction user3Tot(uint pwr3Balance, uint telco3Balance, uint water3Balance) returns (uint) {\n}\nfunction user4Tot(uint pwr4Balance, uint telco4Balance, uint water4Balance) returns (uint) {\n}\n\n}\n",
  "sourcePath": "/Users/simonwilson/Documents/Coding/RedGrid/contracts/redGridVEContract.sol",
  "compiler": {
    "name": "solc",
    "version": "0.4.19+commit.c4cbbb05.Emscripten.clang"
  },
  "schemaVersion": "2.0.0",
  "updatedAt": "2018-05-10T04:43:51.263Z"
}