{
  "contractName": "redGridVEContract",
  "abi": [
    {
      "constant": false,
      "inputs": [],
      "name": "GetString",
      "outputs": [
        {
          "name": "",
          "type": "string"
        }
      ],
      "payable": false,
      "stateMutability": "nonpayable",
      "type": "function"
    }
  ],
  "bytecode": "0x60606040526040805190810160405280600b81526020017f48656c6c6f20576f726c640000000000000000000000000000000000000000008152506000908051906020019061004f929190610060565b50341561005b57600080fd5b610105565b828054600181600116156101000203166002900490600052602060002090601f016020900481019282601f106100a157805160ff19168380011785556100cf565b828001600101855582156100cf579182015b828111156100ce5782518255916020019190600101906100b3565b5b5090506100dc91906100e0565b5090565b61010291905b808211156100fe5760008160009055506001016100e6565b5090565b90565b6101bc806101146000396000f300606060405260043610610041576000357c0100000000000000000000000000000000000000000000000000000000900463ffffffff168063d6181e8414610046575b600080fd5b341561005157600080fd5b6100596100d4565b6040518080602001828103825283818151815260200191508051906020019080838360005b8381101561009957808201518184015260208101905061007e565b50505050905090810190601f1680156100c65780820380516001836020036101000a031916815260200191505b509250505060405180910390f35b6100dc61017c565b60008054600181600116156101000203166002900480601f0160208091040260200160405190810160405280929190818152602001828054600181600116156101000203166002900480156101725780601f1061014757610100808354040283529160200191610172565b820191906000526020600020905b81548152906001019060200180831161015557829003601f168201915b5050505050905090565b6020604051908101604052806000815250905600a165627a7a7230582038a8a9b97a58881230623b92112ecc854fe0677df90cbb1df36618a7475f7feb0029",
  "source": "pragma solidity ^0.4.18;\n\ncontract redGridVEContract {\n\n    string tester = \"Hello World\";\n\nfunction GetString() returns (string) {\n    return tester;\n}\n\n}\n\n//setup XTL token\n//setup central bank <Generator> wallet\n//setup wallets for various homes\n\n//function to deposit\n//function to withdraw\n",
  "sourcePath": "/Users/simonwilson/Documents/Coding/RedGrid/contracts/redGridVEContract.sol",
  "compiler": {
    "name": "solc",
    "version": "0.4.19+commit.c4cbbb05.Emscripten.clang"
  },
  "schemaVersion": "2.0.0",
  "updatedAt": "2018-05-03T03:09:49.779Z"
}