{
  "contractName": "EcommerceStore",
  "abi": [
    {
      "constant": true,
      "inputs": [],
      "name": "productIndex",
      "outputs": [
        {
          "name": "",
          "type": "uint256"
        }
      ],
      "payable": false,
      "stateMutability": "view",
      "type": "function"
    },
    {
      "inputs": [],
      "payable": false,
      "stateMutability": "nonpayable",
      "type": "constructor"
    },
    {
      "constant": false,
      "inputs": [
        {
          "name": "_name",
          "type": "string"
        },
        {
          "name": "_category",
          "type": "string"
        },
        {
          "name": "_imageLink",
          "type": "string"
        },
        {
          "name": "_descLink",
          "type": "string"
        },
        {
          "name": "_auctionStartTime",
          "type": "uint256"
        },
        {
          "name": "_auctionEndTime",
          "type": "uint256"
        },
        {
          "name": "_startPrice",
          "type": "uint256"
        },
        {
          "name": "_productCondition",
          "type": "uint256"
        }
      ],
      "name": "addProductToStore",
      "outputs": [],
      "payable": false,
      "stateMutability": "nonpayable",
      "type": "function"
    },
    {
      "constant": true,
      "inputs": [
        {
          "name": "_productId",
          "type": "uint256"
        }
      ],
      "name": "getProduct",
      "outputs": [
        {
          "name": "",
          "type": "uint256"
        },
        {
          "name": "",
          "type": "string"
        },
        {
          "name": "",
          "type": "string"
        },
        {
          "name": "",
          "type": "string"
        },
        {
          "name": "",
          "type": "string"
        },
        {
          "name": "",
          "type": "uint256"
        },
        {
          "name": "",
          "type": "uint256"
        },
        {
          "name": "",
          "type": "uint256"
        },
        {
          "name": "",
          "type": "uint8"
        },
        {
          "name": "",
          "type": "uint8"
        }
      ],
      "payable": false,
      "stateMutability": "view",
      "type": "function"
    },
    {
      "constant": false,
      "inputs": [
        {
          "name": "_productId",
          "type": "uint256"
        },
        {
          "name": "_bid",
          "type": "bytes32"
        }
      ],
      "name": "bid",
      "outputs": [
        {
          "name": "",
          "type": "bool"
        }
      ],
      "payable": true,
      "stateMutability": "payable",
      "type": "function"
    },
    {
      "constant": false,
      "inputs": [
        {
          "name": "_productId",
          "type": "uint256"
        },
        {
          "name": "_amount",
          "type": "string"
        },
        {
          "name": "_secret",
          "type": "string"
        }
      ],
      "name": "revealBid",
      "outputs": [],
      "payable": false,
      "stateMutability": "nonpayable",
      "type": "function"
    },
    {
      "constant": true,
      "inputs": [
        {
          "name": "_productId",
          "type": "uint256"
        }
      ],
      "name": "highestBidderInfo",
      "outputs": [
        {
          "name": "",
          "type": "address"
        },
        {
          "name": "",
          "type": "uint256"
        },
        {
          "name": "",
          "type": "uint256"
        }
      ],
      "payable": false,
      "stateMutability": "view",
      "type": "function"
    },
    {
      "constant": true,
      "inputs": [
        {
          "name": "_productId",
          "type": "uint256"
        }
      ],
      "name": "totalBids",
      "outputs": [
        {
          "name": "",
          "type": "uint256"
        }
      ],
      "payable": false,
      "stateMutability": "view",
      "type": "function"
    }
  ],
  "bytecode": "0x6060604052341561000f57600080fd5b60008081905550612157806100256000396000f300606060405260043610610083576000357c0100000000000000000000000000000000000000000000000000000000900463ffffffff16806328e3d19014610088578063a508b955146100bf578063b9db15b414610209578063c897d5a61461042f578063ce818ea914610458578063ea1591bb146104c9578063f85f196e14610506575b600080fd5b341561009357600080fd5b6100a960048080359060200190919050506105af565b6040518082815260200191505060405180910390f35b34156100ca57600080fd5b610207600480803590602001908201803590602001908080601f0160208091040260200160405190810160405280939291908181526020018383808284378201915050505050509190803590602001908201803590602001908080601f0160208091040260200160405190810160405280939291908181526020018383808284378201915050505050509190803590602001908201803590602001908080601f0160208091040260200160405190810160405280939291908181526020018383808284378201915050505050509190803590602001908201803590602001908080601f016020809104026020016040519081016040528093929190818152602001838380828437820191505050505050919080359060200190919080359060200190919080359060200190919080359060200190919050506109d7565b005b341561021457600080fd5b61022a6004808035906020019091905050610ca9565b604051808b8152602001806020018060200180602001806020018a815260200189815260200188815260200187600281111561026257fe5b60ff16815260200186600181111561027657fe5b60ff16815260200185810385528e818151815260200191508051906020019080838360005b838110156102b657808201518184015260208101905061029b565b50505050905090810190601f1680156102e35780820380516001836020036101000a031916815260200191505b5085810384528d818151815260200191508051906020019080838360005b8381101561031c578082015181840152602081019050610301565b50505050905090810190601f1680156103495780820380516001836020036101000a031916815260200191505b5085810383528c818151815260200191508051906020019080838360005b83811015610382578082015181840152602081019050610367565b50505050905090810190601f1680156103af5780820380516001836020036101000a031916815260200191505b5085810382528b818151815260200191508051906020019080838360005b838110156103e85780820151818401526020810190506103cd565b50505050905090810190601f1680156104155780820380516001836020036101000a031916815260200191505b509e50505050505050505050505050505060405180910390f35b341561043a57600080fd5b61044261114d565b6040518082815260200191505060405180910390f35b341561046357600080fd5b6104796004808035906020019091905050611153565b604051808473ffffffffffffffffffffffffffffffffffffffff1673ffffffffffffffffffffffffffffffffffffffff168152602001838152602001828152602001935050505060405180910390f35b6104ec600480803590602001909190803560001916906020019091905050611590565b604051808215151515815260200191505060405180910390f35b341561051157600080fd5b6105ad600480803590602001909190803590602001908201803590602001908080601f0160208091040260200160405190810160405280939291908181526020018383808284378201915050505050509190803590602001908201803590602001908080601f01602080910402602001604051908101604052809392919081815260200183838082843782019150505050505091905050611823565b005b60006105b9611f55565b600160006002600086815260200190815260200160002060009054906101000a900473ffffffffffffffffffffffffffffffffffffffff1673ffffffffffffffffffffffffffffffffffffffff1673ffffffffffffffffffffffffffffffffffffffff16815260200190815260200160002060008481526020019081526020016000206101c0604051908101604052908160008201548152602001600182018054600181600116156101000203166002900480601f0160208091040260200160405190810160405280929190818152602001828054600181600116156101000203166002900480156106ec5780601f106106c1576101008083540402835291602001916106ec565b820191906000526020600020905b8154815290600101906020018083116106cf57829003601f168201915b50505050508152602001600282018054600181600116156101000203166002900480601f01602080910402602001604051908101604052809291908181526020018280546001816001161561010002031660029004801561078e5780601f106107635761010080835404028352916020019161078e565b820191906000526020600020905b81548152906001019060200180831161077157829003601f168201915b50505050508152602001600382018054600181600116156101000203166002900480601f0160208091040260200160405190810160405280929190818152602001828054600181600116156101000203166002900480156108305780601f1061080557610100808354040283529160200191610830565b820191906000526020600020905b81548152906001019060200180831161081357829003601f168201915b50505050508152602001600482018054600181600116156101000203166002900480601f0160208091040260200160405190810160405280929190818152602001828054600181600116156101000203166002900480156108d25780601f106108a7576101008083540402835291602001916108d2565b820191906000526020600020905b8154815290600101906020018083116108b557829003601f168201915b505050505081526020016005820154815260200160068201548152602001600782015481526020016008820160009054906101000a900473ffffffffffffffffffffffffffffffffffffffff1673ffffffffffffffffffffffffffffffffffffffff1673ffffffffffffffffffffffffffffffffffffffff16815260200160098201548152602001600a8201548152602001600b8201548152602001600c820160009054906101000a900460ff16600281111561098b57fe5b600281111561099657fe5b8152602001600c820160019054906101000a900460ff1660018111156109b857fe5b60018111156109c357fe5b815250509050806101600151915050919050565b6109df611f55565b83851015156109ed57600080fd5b60008081548092919060010191905055506101c06040519081016040528060005481526020018a8152602001898152602001888152602001878152602001868152602001858152602001848152602001600073ffffffffffffffffffffffffffffffffffffffff16815260200160008152602001600081526020016000815260200160006002811115610a7c57fe5b8152602001836001811115610a8d57fe5b6001811115610a9857fe5b815250905080600160003373ffffffffffffffffffffffffffffffffffffffff1673ffffffffffffffffffffffffffffffffffffffff168152602001908152602001600020600080548152602001908152602001600020600082015181600001556020820151816001019080519060200190610b15929190612009565b506040820151816002019080519060200190610b32929190612009565b506060820151816003019080519060200190610b4f929190612009565b506080820151816004019080519060200190610b6c929190612009565b5060a0820151816005015560c0820151816006015560e082015181600701556101008201518160080160006101000a81548173ffffffffffffffffffffffffffffffffffffffff021916908373ffffffffffffffffffffffffffffffffffffffff160217905550610120820151816009015561014082015181600a015561016082015181600b015561018082015181600c0160006101000a81548160ff02191690836002811115610c1957fe5b02179055506101a082015181600c0160016101000a81548160ff02191690836001811115610c4357fe5b021790555090505033600260008054815260200190815260200160002060006101000a81548173ffffffffffffffffffffffffffffffffffffffff021916908373ffffffffffffffffffffffffffffffffffffffff160217905550505050505050505050565b6000610cb3612089565b610cbb612089565b610cc3612089565b610ccb612089565b6000806000806000610cdb611f55565b60016000600260008f815260200190815260200160002060009054906101000a900473ffffffffffffffffffffffffffffffffffffffff1673ffffffffffffffffffffffffffffffffffffffff1673ffffffffffffffffffffffffffffffffffffffff16815260200190815260200160002060008d81526020019081526020016000206101c0604051908101604052908160008201548152602001600182018054600181600116156101000203166002900480601f016020809104026020016040519081016040528092919081815260200182805460018160011615610100020316600290048015610e0e5780601f10610de357610100808354040283529160200191610e0e565b820191906000526020600020905b815481529060010190602001808311610df157829003601f168201915b50505050508152602001600282018054600181600116156101000203166002900480601f016020809104026020016040519081016040528092919081815260200182805460018160011615610100020316600290048015610eb05780601f10610e8557610100808354040283529160200191610eb0565b820191906000526020600020905b815481529060010190602001808311610e9357829003601f168201915b50505050508152602001600382018054600181600116156101000203166002900480601f016020809104026020016040519081016040528092919081815260200182805460018160011615610100020316600290048015610f525780601f10610f2757610100808354040283529160200191610f52565b820191906000526020600020905b815481529060010190602001808311610f3557829003601f168201915b50505050508152602001600482018054600181600116156101000203166002900480601f016020809104026020016040519081016040528092919081815260200182805460018160011615610100020316600290048015610ff45780601f10610fc957610100808354040283529160200191610ff4565b820191906000526020600020905b815481529060010190602001808311610fd757829003601f168201915b505050505081526020016005820154815260200160068201548152602001600782015481526020016008820160009054906101000a900473ffffffffffffffffffffffffffffffffffffffff1673ffffffffffffffffffffffffffffffffffffffff1673ffffffffffffffffffffffffffffffffffffffff16815260200160098201548152602001600a8201548152602001600b8201548152602001600c820160009054906101000a900460ff1660028111156110ad57fe5b60028111156110b857fe5b8152602001600c820160019054906101000a900460ff1660018111156110da57fe5b60018111156110e557fe5b815250509050806000015181602001518260400151836060015184608001518560a001518660c001518760e00151886101800151896101a001518898508797508696508595509a509a509a509a509a509a509a509a509a509a50509193959799509193959799565b60005481565b6000806000611160611f55565b600160006002600088815260200190815260200160002060009054906101000a900473ffffffffffffffffffffffffffffffffffffffff1673ffffffffffffffffffffffffffffffffffffffff1673ffffffffffffffffffffffffffffffffffffffff16815260200190815260200160002060008681526020019081526020016000206101c0604051908101604052908160008201548152602001600182018054600181600116156101000203166002900480601f0160208091040260200160405190810160405280929190818152602001828054600181600116156101000203166002900480156112935780601f1061126857610100808354040283529160200191611293565b820191906000526020600020905b81548152906001019060200180831161127657829003601f168201915b50505050508152602001600282018054600181600116156101000203166002900480601f0160208091040260200160405190810160405280929190818152602001828054600181600116156101000203166002900480156113355780601f1061130a57610100808354040283529160200191611335565b820191906000526020600020905b81548152906001019060200180831161131857829003601f168201915b50505050508152602001600382018054600181600116156101000203166002900480601f0160208091040260200160405190810160405280929190818152602001828054600181600116156101000203166002900480156113d75780601f106113ac576101008083540402835291602001916113d7565b820191906000526020600020905b8154815290600101906020018083116113ba57829003601f168201915b50505050508152602001600482018054600181600116156101000203166002900480601f0160208091040260200160405190810160405280929190818152602001828054600181600116156101000203166002900480156114795780601f1061144e57610100808354040283529160200191611479565b820191906000526020600020905b81548152906001019060200180831161145c57829003601f168201915b505050505081526020016005820154815260200160068201548152602001600782015481526020016008820160009054906101000a900473ffffffffffffffffffffffffffffffffffffffff1673ffffffffffffffffffffffffffffffffffffffff1673ffffffffffffffffffffffffffffffffffffffff16815260200160098201548152602001600a8201548152602001600b8201548152602001600c820160009054906101000a900460ff16600281111561153257fe5b600281111561153d57fe5b8152602001600c820160019054906101000a900460ff16600181111561155f57fe5b600181111561156a57fe5b815250509050806101000151816101200151826101400151935093509350509193909250565b600080600160006002600087815260200190815260200160002060009054906101000a900473ffffffffffffffffffffffffffffffffffffffff1673ffffffffffffffffffffffffffffffffffffffff1673ffffffffffffffffffffffffffffffffffffffff168152602001908152602001600020600085815260200190815260200160002090508060050154421015151561162b57600080fd5b8060060154421115151561163e57600080fd5b80600701543411151561165057600080fd5b600081600d0160003373ffffffffffffffffffffffffffffffffffffffff1673ffffffffffffffffffffffffffffffffffffffff1681526020019081526020016000206000856000191660001916815260200190815260200160002060000160009054906101000a900473ffffffffffffffffffffffffffffffffffffffff1673ffffffffffffffffffffffffffffffffffffffff161415156116f257600080fd5b6080604051908101604052803373ffffffffffffffffffffffffffffffffffffffff1681526020018581526020013481526020016000151581525081600d0160003373ffffffffffffffffffffffffffffffffffffffff1673ffffffffffffffffffffffffffffffffffffffff1681526020019081526020016000206000856000191660001916815260200190815260200160002060008201518160000160006101000a81548173ffffffffffffffffffffffffffffffffffffffff021916908373ffffffffffffffffffffffffffffffffffffffff160217905550602082015181600101556040820151816002015560608201518160030160006101000a81548160ff021916908315150217905550905050600181600b0160008282540192505081905550600191505092915050565b60008061182e61209d565b60008060016000600260008b815260200190815260200160002060009054906101000a900473ffffffffffffffffffffffffffffffffffffffff1673ffffffffffffffffffffffffffffffffffffffff1673ffffffffffffffffffffffffffffffffffffffff168152602001908152602001600020600089815260200190815260200160002094508460060154421115156118c857600080fd5b86866040518083805190602001908083835b6020831015156118ff57805182526020820191506020810190506020830392506118da565b6001836020036101000a03801982511681845116808217855250505050505090500182805190602001908083835b602083101515611952578051825260208201915060208101905060208303925061192d565b6001836020036101000a038019825116818451168082178552505050505050905001925050506040518091039020935084600d0160003373ffffffffffffffffffffffffffffffffffffffff1673ffffffffffffffffffffffffffffffffffffffff16815260200190815260200160002060008560001916600019168152602001908152602001600020608060405190810160405290816000820160009054906101000a900473ffffffffffffffffffffffffffffffffffffffff1673ffffffffffffffffffffffffffffffffffffffff1673ffffffffffffffffffffffffffffffffffffffff16815260200160018201548152602001600282015481526020016003820160009054906101000a900460ff16151515158152505092506000836000015173ffffffffffffffffffffffffffffffffffffffff16111515611a9857600080fd5b6000151583606001511515141515611aaf57600080fd5b611ab887611d45565b90508083604001511015611ad25782604001519150611c7b565b60008560080160009054906101000a900473ffffffffffffffffffffffffffffffffffffffff1673ffffffffffffffffffffffffffffffffffffffff161415611b7c57338560080160006101000a81548173ffffffffffffffffffffffffffffffffffffffff021916908373ffffffffffffffffffffffffffffffffffffffff160217905550808560090181905550846007015485600a0181905550808360400151039150611c7a565b8460090154811115611c5757846009015485600a01819055508460080160009054906101000a900473ffffffffffffffffffffffffffffffffffffffff1673ffffffffffffffffffffffffffffffffffffffff166108fc86600901549081150290604051600060405180830381858888f193505050501515611bfd57600080fd5b338560080160006101000a81548173ffffffffffffffffffffffffffffffffffffffff021916908373ffffffffffffffffffffffffffffffffffffffff160217905550808560090181905550808360400151039150611c79565b84600a0154811115611c74578085600a0181905550809150611c78565b8091505b5b5b5b600185600d0160003373ffffffffffffffffffffffffffffffffffffffff1673ffffffffffffffffffffffffffffffffffffffff1681526020019081526020016000206000866000191660001916815260200190815260200160002060030160006101000a81548160ff0219169083151502179055506000821115611d3b573373ffffffffffffffffffffffffffffffffffffffff166108fc839081150290604051600060405180830381858888f193505050501515611d3a57600080fd5b5b5050505050505050565b6000611d4f6120de565b60008084925060009150600090505b8251811015611f4a5760307f0100000000000000000000000000000000000000000000000000000000000000028382815181101515611d9957fe5b9060200101517f010000000000000000000000000000000000000000000000000000000000000090047f0100000000000000000000000000000000000000000000000000000000000000027effffffffffffffffffffffffffffffffffffffffffffffffffffffffffffff191610158015611eb1575060397f0100000000000000000000000000000000000000000000000000000000000000028382815181101515611e4157fe5b9060200101517f010000000000000000000000000000000000000000000000000000000000000090047f0100000000000000000000000000000000000000000000000000000000000000027effffffffffffffffffffffffffffffffffffffffffffffffffffffffffffff191611155b15611f3d5760308382815181101515611ec657fe5b9060200101517f010000000000000000000000000000000000000000000000000000000000000090047f0100000000000000000000000000000000000000000000000000000000000000027f0100000000000000000000000000000000000000000000000000000000000000900403600a83020191505b8080600101915050611d5e565b819350505050919050565b6101c06040519081016040528060008152602001611f716120f2565b8152602001611f7e6120f2565b8152602001611f8b6120f2565b8152602001611f986120f2565b8152602001600081526020016000815260200160008152602001600073ffffffffffffffffffffffffffffffffffffffff16815260200160008152602001600081526020016000815260200160006002811115611ff157fe5b81526020016000600181111561200357fe5b81525090565b828054600181600116156101000203166002900490600052602060002090601f016020900481019282601f1061204a57805160ff1916838001178555612078565b82800160010185558215612078579182015b8281111561207757825182559160200191906001019061205c565b5b5090506120859190612106565b5090565b602060405190810160405280600081525090565b608060405190810160405280600073ffffffffffffffffffffffffffffffffffffffff16815260200160008152602001600081526020016000151581525090565b602060405190810160405280600081525090565b602060405190810160405280600081525090565b61212891905b8082111561212457600081600090555060010161210c565b5090565b905600a165627a7a723058208140c8c6cbf636493615af08f31a5f914dda59a4b1f783897fa97e78768868790029",
  "source": "pragma solidity ^0.4.13;\n\ncontract EcommerceStore {\n enum ProductStatus { Open, Sold, Unsold }\n enum ProductCondition { New, Used }\n\n uint public productIndex;\n mapping (address => mapping(uint => Product)) stores;\n mapping (uint => address) productIdInStore;\n\n struct Product {\n  uint id;\n  string name;\n  string category;\n  string imageLink;\n  string descLink;\n  uint auctionStartTime;\n  uint auctionEndTime;\n  uint startPrice;\n  address highestBidder;\n  uint highestBid;\n  uint secondHighestBid;\n  uint totalBids;\n  ProductStatus status;\n  ProductCondition condition;\n  mapping (address => mapping (bytes32 => Bid)) bids;\n }\n\n //bid struct\n struct Bid {\n  address bidder;\n  uint productId;\n  uint value;\n  bool revealed;\n}\n//initialize\n\n function EcommerceStore() public {\n  productIndex = 0;\n }\n\n//add products to my store\n\n function addProductToStore(string _name, string _category, string _imageLink, string _descLink, uint _auctionStartTime, uint _auctionEndTime, uint _startPrice, uint _productCondition) public {\n  require(_auctionStartTime < _auctionEndTime);\n  productIndex++;\n  Product memory product = Product(productIndex, _name, _category, _imageLink, _descLink, _auctionStartTime, _auctionEndTime, _startPrice, 0, 0, 0, 0, ProductStatus.Open, ProductCondition(_productCondition));\n  stores[msg.sender][productIndex] = product;\n  productIdInStore[productIndex] = msg.sender;\n }\n\n//get a specific product from the store\n\n function getProduct(uint _productId) view public returns (uint, string, string, string, string, uint, uint, uint, ProductStatus, ProductCondition) {\n  Product memory product = stores[productIdInStore[_productId]][_productId];\n  return (product.id, product.name, product.category, product.imageLink, product.descLink, product.auctionStartTime, product.auctionEndTime, product.startPrice, product.status, product.condition);\n }\n\n//place a bid on an item\n\n function bid(uint _productId, bytes32 _bid) payable public returns (bool) {\n   Product storage product = stores[productIdInStore[_productId]][_productId];\n   require (now >= product.auctionStartTime);\n   require (now <= product.auctionEndTime);\n   require (msg.value > product.startPrice);\n   require (product.bids[msg.sender][_bid].bidder == 0);\n   product.bids[msg.sender][_bid] = Bid(msg.sender, _productId, msg.value, false);\n   product.totalBids += 1;\n   return true;\n }\n\n//reveal the bid and check whether I'm the winner\n\n function revealBid(uint _productId, string _amount, string _secret) public {\n  Product storage product = stores[productIdInStore[_productId]][_productId];\n  require (now > product.auctionEndTime);\n  bytes32 sealedBid = sha3(_amount, _secret);\n\n  Bid memory bidInfo = product.bids[msg.sender][sealedBid];\n  require (bidInfo.bidder > 0);\n  require (bidInfo.revealed == false);\n\n  uint refund;\n\n  uint amount = stringToUint(_amount);\n\n  if(bidInfo.value < amount) {\n   // They didn't send enough amount, they lost\n   refund = bidInfo.value;\n  } else {\n   // If first to reveal set as highest bidder\n   if (address(product.highestBidder) == 0) {\n    product.highestBidder = msg.sender;\n    product.highestBid = amount;\n    product.secondHighestBid = product.startPrice;\n    refund = bidInfo.value - amount;\n   } else {\n    if (amount > product.highestBid) {\n     product.secondHighestBid = product.highestBid;\n     product.highestBidder.transfer(product.highestBid);\n     product.highestBidder = msg.sender;\n     product.highestBid = amount;\n     refund = bidInfo.value - amount;\n    } else if (amount > product.secondHighestBid) {\n     product.secondHighestBid = amount;\n     refund = amount;\n    } else {\n     refund = amount;\n    }\n   }\n  }\n  product.bids[msg.sender][sealedBid].revealed = true;\n\n  if (refund > 0) {\n   msg.sender.transfer(refund);\n  }\n }\n\n//getter function to reveal the highest bidders info from the website\n\n function highestBidderInfo(uint _productId) view public returns (address, uint, uint) {\n   Product memory product = stores[productIdInStore[_productId]][_productId];\n   return (product.highestBidder, product.highestBid, product.secondHighestBid);\n }\n\n//getter function to check how many bids have been placed\n\n function totalBids(uint _productId) view public returns (uint) {\n   Product memory product = stores[productIdInStore[_productId]][_productId];\n   return product.totalBids;\n }\n\n//this function is to convert the hash string 'value field' to a number\n\n function stringToUint(string s) pure private returns (uint) {\n   bytes memory b = bytes(s);\n   uint result = 0;\n   for (uint i = 0; i < b.length; i++) {\n     if (b[i] >= 48 && b[i] <= 57) {\n       result = result * 10 + (uint(b[i]) - 48);\n     }\n   }\n   return result;\n }\n\n}\n",
  "sourcePath": "/Users/simonwilson/Documents/Coding/ebay_dapp/contracts/EcommerceStore.sol",
  "compiler": {
    "name": "solc",
    "version": "0.4.19+commit.c4cbbb05.Emscripten.clang"
  },
  "schemaVersion": "2.0.0",
  "updatedAt": "2018-05-15T01:25:10.899Z"
}