{
  "contractName": "EcommerceStore",
  "abi": [
    {
      "constant": true,
      "inputs": [],
      "name": "productIndex",
      "outputs": [
        {
          "name": "",
          "type": "uint256"
        }
      ],
      "payable": false,
      "stateMutability": "view",
      "type": "function"
    },
    {
      "inputs": [],
      "payable": false,
      "stateMutability": "nonpayable",
      "type": "constructor"
    },
    {
      "constant": false,
      "inputs": [
        {
          "name": "_name",
          "type": "string"
        },
        {
          "name": "_category",
          "type": "string"
        },
        {
          "name": "_imageLink",
          "type": "string"
        },
        {
          "name": "_descLink",
          "type": "string"
        },
        {
          "name": "_auctionStartTime",
          "type": "uint256"
        },
        {
          "name": "_auctionEndTime",
          "type": "uint256"
        },
        {
          "name": "_startPrice",
          "type": "uint256"
        },
        {
          "name": "_productCondition",
          "type": "uint256"
        }
      ],
      "name": "addProductToStore",
      "outputs": [],
      "payable": false,
      "stateMutability": "nonpayable",
      "type": "function"
    },
    {
      "constant": true,
      "inputs": [
        {
          "name": "_productId",
          "type": "uint256"
        }
      ],
      "name": "getProduct",
      "outputs": [
        {
          "name": "",
          "type": "uint256"
        },
        {
          "name": "",
          "type": "string"
        },
        {
          "name": "",
          "type": "string"
        },
        {
          "name": "",
          "type": "string"
        },
        {
          "name": "",
          "type": "string"
        },
        {
          "name": "",
          "type": "uint256"
        },
        {
          "name": "",
          "type": "uint256"
        },
        {
          "name": "",
          "type": "uint256"
        },
        {
          "name": "",
          "type": "uint8"
        },
        {
          "name": "",
          "type": "uint8"
        }
      ],
      "payable": false,
      "stateMutability": "view",
      "type": "function"
    }
  ],
  "bytecode": "0x6060604052341561000f57600080fd5b60008081905550610d1d806100256000396000f300606060405260043610610057576000357c0100000000000000000000000000000000000000000000000000000000900463ffffffff168063a508b9551461005c578063b9db15b4146101a6578063c897d5a6146103cc575b600080fd5b341561006757600080fd5b6101a4600480803590602001908201803590602001908080601f0160208091040260200160405190810160405280939291908181526020018383808284378201915050505050509190803590602001908201803590602001908080601f0160208091040260200160405190810160405280939291908181526020018383808284378201915050505050509190803590602001908201803590602001908080601f0160208091040260200160405190810160405280939291908181526020018383808284378201915050505050509190803590602001908201803590602001908080601f016020809104026020016040519081016040528093929190818152602001838380828437820191505050505050919080359060200190919080359060200190919080359060200190919080359060200190919050506103f5565b005b34156101b157600080fd5b6101c760048080359060200190919050506106c6565b604051808b8152602001806020018060200180602001806020018a81526020018981526020018881526020018760028111156101ff57fe5b60ff16815260200186600181111561021357fe5b60ff16815260200185810385528e818151815260200191508051906020019080838360005b83811015610253578082015181840152602081019050610238565b50505050905090810190601f1680156102805780820380516001836020036101000a031916815260200191505b5085810384528d818151815260200191508051906020019080838360005b838110156102b957808201518184015260208101905061029e565b50505050905090810190601f1680156102e65780820380516001836020036101000a031916815260200191505b5085810383528c818151815260200191508051906020019080838360005b8381101561031f578082015181840152602081019050610304565b50505050905090810190601f16801561034c5780820380516001836020036101000a031916815260200191505b5085810382528b818151815260200191508051906020019080838360005b8381101561038557808201518184015260208101905061036a565b50505050905090810190601f1680156103b25780820380516001836020036101000a031916815260200191505b509e50505050505050505050505050505060405180910390f35b34156103d757600080fd5b6103df610b6a565b6040518082815260200191505060405180910390f35b6103fd610b70565b838510151561040b57600080fd5b600160008082825401925050819055506101c06040519081016040528060005481526020018a8152602001898152602001888152602001878152602001868152602001858152602001848152602001600073ffffffffffffffffffffffffffffffffffffffff1681526020016000815260200160008152602001600081526020016000600281111561049957fe5b81526020018360018111156104aa57fe5b60018111156104b557fe5b815250905080600160003373ffffffffffffffffffffffffffffffffffffffff1673ffffffffffffffffffffffffffffffffffffffff168152602001908152602001600020600080548152602001908152602001600020600082015181600001556020820151816001019080519060200190610532929190610c24565b50604082015181600201908051906020019061054f929190610c24565b50606082015181600301908051906020019061056c929190610c24565b506080820151816004019080519060200190610589929190610c24565b5060a0820151816005015560c0820151816006015560e082015181600701556101008201518160080160006101000a81548173ffffffffffffffffffffffffffffffffffffffff021916908373ffffffffffffffffffffffffffffffffffffffff160217905550610120820151816009015561014082015181600a015561016082015181600b015561018082015181600c0160006101000a81548160ff0219169083600281111561063657fe5b02179055506101a082015181600c0160016101000a81548160ff0219169083600181111561066057fe5b021790555090505033600260008054815260200190815260200160002060006101000a81548173ffffffffffffffffffffffffffffffffffffffff021916908373ffffffffffffffffffffffffffffffffffffffff160217905550505050505050505050565b60006106d0610ca4565b6106d8610ca4565b6106e0610ca4565b6106e8610ca4565b60008060008060006106f8610b70565b60016000600260008f815260200190815260200160002060009054906101000a900473ffffffffffffffffffffffffffffffffffffffff1673ffffffffffffffffffffffffffffffffffffffff1673ffffffffffffffffffffffffffffffffffffffff16815260200190815260200160002060008d81526020019081526020016000206101c0604051908101604052908160008201548152602001600182018054600181600116156101000203166002900480601f01602080910402602001604051908101604052809291908181526020018280546001816001161561010002031660029004801561082b5780601f106108005761010080835404028352916020019161082b565b820191906000526020600020905b81548152906001019060200180831161080e57829003601f168201915b50505050508152602001600282018054600181600116156101000203166002900480601f0160208091040260200160405190810160405280929190818152602001828054600181600116156101000203166002900480156108cd5780601f106108a2576101008083540402835291602001916108cd565b820191906000526020600020905b8154815290600101906020018083116108b057829003601f168201915b50505050508152602001600382018054600181600116156101000203166002900480601f01602080910402602001604051908101604052809291908181526020018280546001816001161561010002031660029004801561096f5780601f106109445761010080835404028352916020019161096f565b820191906000526020600020905b81548152906001019060200180831161095257829003601f168201915b50505050508152602001600482018054600181600116156101000203166002900480601f016020809104026020016040519081016040528092919081815260200182805460018160011615610100020316600290048015610a115780601f106109e657610100808354040283529160200191610a11565b820191906000526020600020905b8154815290600101906020018083116109f457829003601f168201915b505050505081526020016005820154815260200160068201548152602001600782015481526020016008820160009054906101000a900473ffffffffffffffffffffffffffffffffffffffff1673ffffffffffffffffffffffffffffffffffffffff1673ffffffffffffffffffffffffffffffffffffffff16815260200160098201548152602001600a8201548152602001600b8201548152602001600c820160009054906101000a900460ff166002811115610aca57fe5b6002811115610ad557fe5b8152602001600c820160019054906101000a900460ff166001811115610af757fe5b6001811115610b0257fe5b815250509050806000015181602001518260400151836060015184608001518560a001518660c001518760e00151886101800151896101a001518898508797508696508595509a509a509a509a509a509a509a509a509a509a50509193959799509193959799565b60005481565b6101c06040519081016040528060008152602001610b8c610cb8565b8152602001610b99610cb8565b8152602001610ba6610cb8565b8152602001610bb3610cb8565b8152602001600081526020016000815260200160008152602001600073ffffffffffffffffffffffffffffffffffffffff16815260200160008152602001600081526020016000815260200160006002811115610c0c57fe5b815260200160006001811115610c1e57fe5b81525090565b828054600181600116156101000203166002900490600052602060002090601f016020900481019282601f10610c6557805160ff1916838001178555610c93565b82800160010185558215610c93579182015b82811115610c92578251825591602001919060010190610c77565b5b509050610ca09190610ccc565b5090565b602060405190810160405280600081525090565b602060405190810160405280600081525090565b610cee91905b80821115610cea576000816000905550600101610cd2565b5090565b905600a165627a7a72305820858ad859692e749dcbc0b88a0768f67026915aecce8543bca598cab96101e0020029",
  "source": "pragma solidity ^0.4.13;\n\ncontract EcommerceStore {\n enum ProductStatus { Open, Sold, Unsold }\n enum ProductCondition { New, Used }\n\n uint public productIndex;\n mapping (address => mapping(uint => Product)) stores;\n mapping (uint => address) productIdInStore;\n\n struct Product {\n  uint id;\n  string name;\n  string category;\n  string imageLink;\n  string descLink;\n  uint auctionStartTime;\n  uint auctionEndTime;\n  uint startPrice;\n  address highestBidder;\n  uint highestBid;\n  uint secondHighestBid;\n  uint totalBids;\n  ProductStatus status;\n  ProductCondition condition;\n }\n\n function EcommerceStore() public {\n  productIndex = 0;\n }\n function addProductToStore(string _name, string _category, string _imageLink, string _descLink, uint _auctionStartTime,\n  uint _auctionEndTime, uint _startPrice, uint _productCondition) public {\n  require (_auctionStartTime < _auctionEndTime);\n  productIndex += 1;\n  Product memory product = Product(productIndex, _name, _category, _imageLink, _descLink, _auctionStartTime, _auctionEndTime,\n                   _startPrice, 0, 0, 0, 0, ProductStatus.Open, ProductCondition(_productCondition));\n  stores[msg.sender][productIndex] = product;\n  productIdInStore[productIndex] = msg.sender;\n}\n\nfunction getProduct(uint _productId) view public returns (uint, string, string, string, string, uint, uint, uint, ProductStatus, ProductCondition) {\n  Product memory product = stores[productIdInStore[_productId]][_productId];\n  return (product.id, product.name, product.category, product.imageLink, product.descLink, product.auctionStartTime,\n      product.auctionEndTime, product.startPrice, product.status, product.condition);\n}\n}\n",
  "sourcePath": "/Users/simonwilson/Documents/Coding/ebay_dapp/contracts/EcommerceStore.sol",
  "compiler": {
    "name": "solc",
    "version": "0.4.19+commit.c4cbbb05.Emscripten.clang"
  },
  "schemaVersion": "2.0.0",
  "updatedAt": "2018-04-14T10:36:18.755Z"
}