{
  "contractName": "EthMicroGrid",
  "abi": [
    {
      "constant": true,
      "inputs": [
        {
          "name": "",
          "type": "address"
        }
      ],
      "name": "balanceOfRRE",
      "outputs": [
        {
          "name": "",
          "type": "uint256"
        }
      ],
      "payable": false,
      "stateMutability": "view",
      "type": "function"
    },
    {
      "constant": true,
      "inputs": [
        {
          "name": "",
          "type": "address"
        }
      ],
      "name": "balanceOfKWH",
      "outputs": [
        {
          "name": "",
          "type": "uint256"
        }
      ],
      "payable": false,
      "stateMutability": "view",
      "type": "function"
    },
    {
      "constant": false,
      "inputs": [
        {
          "name": "initialSupply",
          "type": "uint256"
        }
      ],
      "name": "rreToken",
      "outputs": [],
      "payable": false,
      "stateMutability": "nonpayable",
      "type": "function"
    },
    {
      "constant": false,
      "inputs": [
        {
          "name": "_to",
          "type": "address"
        },
        {
          "name": "_value",
          "type": "uint256"
        }
      ],
      "name": "transferRRE",
      "outputs": [],
      "payable": false,
      "stateMutability": "nonpayable",
      "type": "function"
    },
    {
      "constant": false,
      "inputs": [
        {
          "name": "initialSupply",
          "type": "uint256"
        }
      ],
      "name": "kwhToken",
      "outputs": [],
      "payable": false,
      "stateMutability": "nonpayable",
      "type": "function"
    },
    {
      "constant": false,
      "inputs": [
        {
          "name": "_to",
          "type": "address"
        },
        {
          "name": "_value",
          "type": "uint256"
        }
      ],
      "name": "transferKWH",
      "outputs": [],
      "payable": false,
      "stateMutability": "nonpayable",
      "type": "function"
    }
  ],
  "bytecode": "0x6060604052341561000f57600080fd5b6105bb8061001e6000396000f300606060405260043610610078576000357c0100000000000000000000000000000000000000000000000000000000900463ffffffff1680630ea351611461007d57806337683975146100bf5780634a347a4b1461010157806379803936146101245780638b6682dc14610147578063fb9b88cf14610194575b600080fd5b341561008857600080fd5b6100bd600480803573ffffffffffffffffffffffffffffffffffffffff169060200190919080359060200190919050506101e1565b005b34156100ca57600080fd5b6100ff600480803573ffffffffffffffffffffffffffffffffffffffff16906020019091908035906020019091905050610357565b005b341561010c57600080fd5b61012260048080359060200190919050506104d2565b005b341561012f57600080fd5b6101456004808035906020019091905050610519565b005b341561015257600080fd5b61017e600480803573ffffffffffffffffffffffffffffffffffffffff1690602001909190505061055f565b6040518082815260200191505060405180910390f35b341561019f57600080fd5b6101cb600480803573ffffffffffffffffffffffffffffffffffffffff16906020019091905050610577565b6040518082815260200191505060405180910390f35b806000803373ffffffffffffffffffffffffffffffffffffffff1673ffffffffffffffffffffffffffffffffffffffff168152602001908152602001600020541015151561022e57600080fd5b6000808373ffffffffffffffffffffffffffffffffffffffff1673ffffffffffffffffffffffffffffffffffffffff16815260200190815260200160002054816000808573ffffffffffffffffffffffffffffffffffffffff1673ffffffffffffffffffffffffffffffffffffffff1681526020019081526020016000205401101515156102bb57600080fd5b806000803373ffffffffffffffffffffffffffffffffffffffff1673ffffffffffffffffffffffffffffffffffffffff16815260200190815260200160002060008282540392505081905550806000808473ffffffffffffffffffffffffffffffffffffffff1673ffffffffffffffffffffffffffffffffffffffff168152602001908152602001600020600082825401925050819055505050565b80600160003373ffffffffffffffffffffffffffffffffffffffff1673ffffffffffffffffffffffffffffffffffffffff16815260200190815260200160002054101515156103a557600080fd5b600160008373ffffffffffffffffffffffffffffffffffffffff1673ffffffffffffffffffffffffffffffffffffffff1681526020019081526020016000205481600160008573ffffffffffffffffffffffffffffffffffffffff1673ffffffffffffffffffffffffffffffffffffffff16815260200190815260200160002054011015151561043457600080fd5b80600160003373ffffffffffffffffffffffffffffffffffffffff1673ffffffffffffffffffffffffffffffffffffffff1681526020019081526020016000206000828254039250508190555080600160008473ffffffffffffffffffffffffffffffffffffffff1673ffffffffffffffffffffffffffffffffffffffff168152602001908152602001600020600082825401925050819055505050565b80600160003373ffffffffffffffffffffffffffffffffffffffff1673ffffffffffffffffffffffffffffffffffffffff1681526020019081526020016000208190555050565b806000803373ffffffffffffffffffffffffffffffffffffffff1673ffffffffffffffffffffffffffffffffffffffff1681526020019081526020016000208190555050565b60006020528060005260406000206000915090505481565b600160205280600052604060002060009150905054815600a165627a7a72305820deb3962fad031328ba0d1912c029d22340b24094951643906e7af3da31d25af60029",
  "source": "pragma solidity ^0.4.17;\n\ncontract EthMicroGrid {\n\n//create the RRE Token\n\n      /* This array with all RRE balances */\n      mapping (address => uint256) public balanceOfRRE;\n\n      /* Initializes contract with initial supply RRE value - RRE initial value retrieved from dbase in real deployment */\n      function rreToken(\n          uint256 initialSupply\n          ) public {\n          balanceOfRRE[msg.sender] = initialSupply;              // Give the creator all initial tokens\n      }\n\n      /* Send coins */\n      function transferRRE(address _to, uint256 _value) public {\n          require(balanceOfRRE[msg.sender] >= _value);           // Check if the sender has enough\n          require(balanceOfRRE[_to] + _value >= balanceOfRRE[_to]); // Check for overflows\n          balanceOfRRE[msg.sender] -= _value;                    // Subtract from the sender\n          balanceOfRRE[_to] += _value;                           // Add the same to the recipient\n      }\n\n  //create the KWH Token\n\n      /* This creates an array with all balances */\n      mapping (address => uint256) public balanceOfKWH;\n\n      /* Initializes contract with initial supply tokens to the creator of the contract */\n      function kwhToken(\n          uint256 initialSupply\n          ) public {\n          balanceOfKWH[msg.sender] = initialSupply;              // Give the creator all initial tokens\n      }\n\n      /* Send coins */\n      function transferKWH(address _to, uint256 _value) public {\n          require(balanceOfKWH[msg.sender] >= _value);           // Check if the sender has enough\n          require(balanceOfKWH[_to] + _value >= balanceOfKWH[_to]); // Check for overflows\n          balanceOfKWH[msg.sender] -= _value;                    // Subtract from the sender\n          balanceOfKWH[_to] += _value;                           // Add the same to the recipient\n      }\n\n\n\n\n}\n",
  "sourcePath": "/Users/simonwilson/Documents/Coding/TilityDemo/contracts/EthMicroGrid.sol",
  "compiler": {
    "name": "solc",
    "version": "0.4.19+commit.c4cbbb05.Emscripten.clang"
  },
  "schemaVersion": "2.0.0",
  "updatedAt": "2018-05-24T02:40:35.787Z"
}